:100000000C94F2020C941A030C941A030C941A0325
:100010000C941A030C941A030C941A030C941A03EC
:100020000C941A030C94FA050C941A030C941A03FA
:100030000C941A030C9455060C941A030C941A038E
:100040000C9458050C941A030C94C8050C94A20542
:100050000C941A030C941A030C941A030C941A03AC
:100060000C941A030C941A03D80A4D0B170BFF0AB1
:10007000030A030AD20A030AD20A030AD20AD20ADC
:10008000D20A030AD20AD20A000000002500280082
:100090002B0000000000240027002A0000000000C0
:1000A00023002600290004040404040404040202BA
:1000B00002020202030303030303010204081020E7
:1000C00040800102040810200102040810200000F2
:1000D0000008000201000003040700000000000007
:1000E00000007F7F7F7F7F7F7F7F7F7F7F7F7F7F1E
:1000F0007F7F7F7F7F7F7F7F7F7F7F7F7F7F7F7F10
:100100007F7F7F7F7F7F7F7F7F7F7F7F7F7F7F7FFF
:100110007F7F7F7F7F7F7F7F7F7F7F7F7F7F7F7FEF
:100120007F7F7F7F7F7F7F7F7F7F7F7F7F7F7F7FDF
:100130007F7F7F7F7F7F7F7F7F7F7F7F7F7F7F7FCF
:100140007F7F7F7F7F7F7F7F7F7F7F7F7F7F7F7FBF
:100150007F7F7F7F7F7F7F7F7F7F7F7F7F7F7F7FAF
:100160007F7F7F7D7B79777573716F6D6B69676555
:1001700063615F5D5B59575553514F4D4B4947453F
:1001800043413F3D3B39373533312F2D2B2927252F
:1001900023211F1D1B19171513110F0D0B0907051F
:1001A000030100020406080A0C0E10121416181A95
:1001B0001C1E20222426282A2C2E30323436383A8F
:1001C0003C3E40424446484A4C4E50525456585A7F
:1001D0005C5E60626466686A6C6E70727476787A6F
:1001E0007C7E000102030405060708090A0B0C0DBA
:1001F0000E0F101112131415161718191A1B1C1DA7
:100200001E1F202122232425262728292A2B2C2D96
:100210002E2F303132333435363738393A3B3C3D86
:100220003E3F404142434445464748494A4B4C4D76
:100230004E4F404142434445464748494A4B4C4D46
:100240004E4F606162636465666768696A6B6C6D76
:100250006E6F707172737475767778797A7B7C7D46
:100260007E7F808182838485868788898A8B8C8D36
:100270008E8F909192939495969798999A9B9C9D26
:100280009E9FA0A1A2A3A4A5A6A7A8A9AAABACAD16
:10029000AEAFB0B1B2B3B4B5B6B7B8B9BABBBCBD06
:1002A000BEBFC0C1C2C3C4C5C6C7C8C9CACBCCCDF6
:1002B000CECFD0D1D2D3D4D5D6D7D8D9DADBDCDDE6
:1002C000DEDFE0E1E2E3E4E5E6E7E8E9EAEBECEDD6
:1002D000EEEFF0F1F2F3F4F5F6F7F8F9FAFBFCFDC6
:1002E000FEFF00020406080A0C0E10121416181A5B
:1002F0001C1E20222426282A2C2E30323436383A4E
:100300003C3E40424446484A4C4E50525456585A3D
:100310005C5E60626466686A6C6E70727476787A2D
:100320007C7E80828486888A8C8E90929496989A1D
:100330009C9EA0A2A4A6A8AAACAEB0B2B4B6B8BA0D
:10034000BCBEC0C2C4C6C8CACCCED0D2D4D6D8DAFD
:10035000DCDEE0E2E4E6E8EAECEEF0F2F4F6F8FAED
:10036000FCFEFFFDFBF9F7F5F3F1EFEDEBE9E7E557
:10037000E3E1DFDDDBD9D7D5D3D1CFCDCBC9C7C53D
:10038000C3C1BFBDBBB9B7B5B3B1AFADABA9A7A52D
:10039000A3A19F9D9B99979593918F8D8B8987851D
:1003A00083817F7D7B79777573716F6D6B6967650D
:1003B00063615F5D5B59575553514F4D4B494745FD
:1003C00043413F3D3B39373533312F2D2B292725ED
:1003D00023211F1D1B19171513110F0D0B090705DD
:1003E00003017F7F7F7F7F7F7F7F7F7F7F7F7F7F17
:1003F0007F7F7F7F7F7F7F7F7F7F7F7F7F7F7F7F0D
:100400007F7F7F7F7F7F7F7F7F7F7F7F7F7F7F7FFC
:100410007F7F7F7F7F7F7F7F7F7F7F7F7F7F7F7FEC
:100420007F7F7F7F7F7F7F7F7F7F7F7F7F7F7F7FDC
:100430007F7F7F7F7F7F7F7F7F7F7F7F7F7F7F7FCC
:100440007F7F7F7F7F7F7F7F7F7F7F7F7F7F7F7FBC
:100450007F7F7F7F7F7F7F7F7F7F7F7F7F7F7F7FAC
:100460007F7F818181818181818181818181818180
:10047000818181818181818181818181818181816C
:10048000818181818181818181818181818181815C
:10049000818181818181818181818181818181814C
:1004A000818181818181818181818181818181813C
:1004B000818181818181818181818181818181812C
:1004C000818181818181818181818181818181811C
:1004D000818181818181818181818181818181810C
:1004E0008181000306090C0F1215181B1E212427F9
:1004F0002A2D303336393B3E414346494B4E50520C
:100500005557595B5E6062646667696B6C6E7071AB
:10051000727475767778797A7B7B7C7D7D7E7E7E42
:100520007E7E7F7E7E7E7E7E7D7D7C7B7B7A797803
:10053000777675747271706E6C6B696766646260F1
:100540005E5B59575552504E4B494643413E3B39ED
:100550003633302D2A2724211E1B1815120F0C09A3
:10056000060300FDFAF7F4F1EEEBE8E5E2DFDCD993
:10057000D6D3D0CDCAC7C5C2BFBDBAB7B5B2B0AE6B
:10058000ABA9A7A5A2A09E9C9A9997959492908FAB
:100590008E8C8B8A898887868585848383828282F4
:1005A0008282818282828282838384858586878813
:1005B000898A8B8C8E8F9092949597999A9C9EA005
:1005C000A2A5A7A9ABAEB0B2B5B7BABDBFC2C5C7E9
:1005D000CACDD0D3D6D9DCDFE2E5E8EBEEF1F4F713
:1005E000FAFDC50611241FBECFEFD8E0DEBFCDBF98
:1005F00014E0A0E0B1E0E0E2FDE102C005900D9260
:10060000A231B107D9F725E0A2E1B4E001C01D9203
:10061000A339B207E1F712E0C2EFD2E004C021979C
:10062000FE010E94830EC13FD107C9F70E94550702
:100630000C948E0E0C940000CF92DF92EF92FF92FA
:100640000F931F93CF93DF936C017A018B01C0E06E
:10065000D0E0CE15DF0589F0D8016D918D01D6016E
:10066000ED91FC910190F081E02DC6010995892B57
:1006700011F47E0102C02196ECCFC701DF91CF912A
:100680001F910F91FF90EF90DF90CF900895089504
:1006900080E090E00895FC01538D448D252F30E0DB
:1006A000842F90E0821B930B541710F0CF9608957F
:1006B00001970895FC01918D828D981761F0828DCC
:1006C000DF01A80FB11D5D968C91928D9F5F9F7386
:1006D000928F90E008958FEF9FEF0895FC01918D28
:1006E000828D981731F0828DE80FF11D858D90E095
:1006F00008958FEF9FEF0895FC01918D228D892F32
:1007000090E0805C9F4F821B91098F739927089519
:100710008BE394E00E947C0321E0892B09F420E024
:10072000822F0895FC01848DDF01A80FB11DA35A0B
:10073000BF4F2C91848D90E001968F739927848F01
:10074000A689B7892C93A089B1898C9180648C93F8
:10075000938D848D981306C00288F389E02D8081E3
:100760008F7D80830895EF92FF920F931F93CF9315
:10077000DF93EC0181E0888F9B8D8C8D981305C0F1
:10078000E889F989808185FD24C0F62E0B8D10E063
:100790000F5F1F4F0F731127E02E8C8DE8120CC0D6
:1007A0000FB607FCFACFE889F989808185FFF5CF7C
:1007B000CE010E949203F1CF8B8DFE01E80FF11D57
:1007C000E35AFF4FF0820B8FEA89FB8980818062B8
:1007D00007C0EE89FF896083E889F9898081806498
:1007E000808381E090E0DF91CF911F910F91FF9086
:1007F000EF900895CF93DF93EC01888D8823C9F0A3
:10080000EA89FB89808185FD05C0A889B9898C9119
:1008100086FD0FC00FB607FCF5CF808185FFF2CFB4
:10082000A889B9898C9185FFEDCFCE010E949203F2
:10083000E7CFDF91CF91089580E090E0892B29F0F8
:100840000E94880381110C940000089590E0FC013F
:10085000E253FF4F2491FC01E654FF4F3491FC0119
:10086000EA55FF4FE491EE23B9F1222339F1233009
:1008700091F038F42130A9F0223001F584B58F7D54
:1008800012C0273091F02830A1F02430B9F48091C3
:1008900080008F7D03C0809180008F7780938000DF
:1008A0000DC084B58F7784BD09C08091B0008F776B
:1008B00003C08091B0008F7D8093B000F0E0EE0F18
:1008C000FF1FE456FF4FA591B491EC913E2381E0C8
:1008D00090E021F480E0089580E090E00895CF93C7
:1008E000DF9390E0FC01E654FF4F2491FC01EA55B0
:1008F000FF4F8491882361F190E0880F991FFC01DC
:10090000EE56FF4FC591D491FC01E857FF4FA591DA
:10091000B491611109C09FB7F89488812095822312
:100920008883EC912E230BC0623061F49FB7F8945A
:100930003881822F809583238883EC912E2B2C93F2
:100940009FBF06C08FB7F894E8812E2B28838FBFF6
:10095000DF91CF9108956D3F71053CF46A3F7105B9
:1009600054F4683F710589F406C09B012E5F31097C
:100970002230310550F4DC018D919C91DC01ED9128
:10098000FC910190F081E02D09940895EF92FF927F
:100990001F93CF93DF931F92CDB7DEB77C01162F45
:1009A0002150203108F04EC080E8E816F1040CF424
:1009B00049C0A1EEEA16F104ACF58091FC049091D7
:1009C000FD04DC01ED91FC916E2D622B0190F08114
:1009D000E02D498309958091FC049091FD04DC0190
:1009E000ED91FC91612F6F770190F081E02D0995D9
:1009F000E894E4F84981B0ECEB16F10419F1809128
:100A0000FC049091FD04DC01ED91FC91642F6F7763
:100A10000190F081E02D0F90DF91CF911F91FF9019
:100A2000EF900994C701885F9109089758F4B701BE
:100A30008CEF94E00F90DF91CF911F91FF90EF909A
:100A40000C94AB040F90DF91CF911F91FF90EF902A
:100A5000089587FF0DC09CE0980F923048F0982FC2
:100A60009B7F993F29F0803F08F4807F90E00895B4
:100A700080E090E008959C018F7C8038910561F0C2
:100A8000203D310549F081E0203E310539F0203C20
:100A9000310521F080E0089581E008950895DC019A
:100AA000ED91FC910190F081E02D09940E94890E56
:100AB0001F920F920FB60F9211242F933F938F9393
:100AC0009F93AF93BF938091370490913804A09186
:100AD0003904B0913A043091360423E0230F2D37C6
:100AE00020F40196A11DB11D05C026E8230F029632
:100AF000A11DB11D209336048093370490933804D0
:100B0000A0933904B0933A04809132049091330455
:100B1000A0913404B09135040196A11DB11D8093BC
:100B2000320490933304A0933404B0933504BF91FE
:100B3000AF919F918F913F912F910F900FBE0F908A
:100B40001F9018951F920F920FB60F9211242F939A
:100B50003F934F935F936F937F938F939F93AF9345
:100B6000BF93EF93FF938BE394E00E949203FF9176
:100B7000EF91BF91AF919F918F917F916F915F9115
:100B80004F913F912F910F900FBE0F901F9018958E
:100B90001F920F920FB60F9211242F938F939F9352
:100BA000EF93FF93E0914B04F0914C048081E0912E
:100BB0005104F091520482FD12C09081809154043E
:100BC0008F5F8F7320915504821751F0E091540488
:100BD000F0E0E55CFB4F958F8093540401C0808169
:100BE000FF91EF919F918F912F910F900FBE0F90DA
:100BF0001F9018951F920F920FB60F9211242F93EA
:100C00003F934F935F938F939F93AF93BF93CF93F4
:100C1000DF93EF93FF93EAE1F4E022853385858546
:100C20009685280F391F36872587A0910001B0913E
:100C30000101232F3327ED01C20FD31F48815485B3
:100C40008785908922893389820F931F938B828BAA
:100C5000892F9927A80FB91F8C919189E2E1F4E0BF
:100C6000450290011124220F232F221F330B3195AF
:100C7000205822838902C0011124880F892F881FE0
:100C8000990B919580588383FF91EF91DF91CF91DC
:100C9000BF91AF919F918F915F914F913F912F9114
:100CA0000F900FBE0F901F9018951F920F920FB6C6
:100CB0000F9211242F933F934F935F936F937F93E2
:100CC0008F939F93AF93BF93CF93DF93EF93FF9354
:100CD000EAE1F4E02081318183819481820F931FC6
:100CE00094838383A0910001B0910101892F9927FA
:100CF000ED01C80FD91F98812281458156816085F9
:100D00007185460F571F51874087452F5527A40FE0
:100D1000B51F8C914781920290011124220F232F3D
:100D2000221F330B31952058E2E1F4E02083840246
:100D3000C0011124880F892F881F990B9195805825
:100D4000818390E0820F911D2281820F911D23816A
:100D5000820F911D9595879595958795909389001C
:100D600080938800FF91EF91DF91CF91BF91AF9178
:100D70009F918F917F916F915F914F913F912F91B3
:100D80000F900FBE0F901F901895CF93DF93ABE39A
:100D9000B4E013961C921E92129748EE53E060E066
:100DA00070E014964D935D936D937C93179784E058
:100DB00094E011969C938E9385EC90E01D969C9305
:100DC0008E931C9784EC90E01F969C938E931E97B5
:100DD00080EC90E051969C938E93509781EC90E03C
:100DE00053969C938E93529782EC90E055969C93E9
:100DF0008E93549786EC90E057969C938E935697DB
:100E000059961C9259975A961C925A975B961C9227
:100E10005B975C961C925C97E8EDF4E0B5A3A4A305
:100E200016A217A210A615A614A617A616A68FEF2F
:100E30009FEF91AB80AB93AB82AB83E080930C05CB
:100E400015AA17AA16AA10AE11AE1092920580E844
:100E5000A2E1B5E0ED0119928A95E9F711821082BD
:100E600013821282158214821782168211861086CE
:100E7000138612861586148617861686118A108A9E
:100E8000138A128A158A148A178A168A118E108E6E
:100E9000138E128E158E148E178E168E11A210A21E
:100EA00013A212A2DF91CF910895789484B5826045
:100EB00084BD84B5816084BD85B5826085BD85B5FE
:100EC000816085BD80916E00816080936E0010927C
:100ED00081008091810082608093810080918100F7
:100EE0008160809381008091800081608093800088
:100EF0008091B10084608093B1008091B0008160E6
:100F00008093B00080917A00846080937A00809111
:100F10007A00826080937A0080917A008160809369
:100F20007A0080917A00806880937A001092C100E4
:100F3000E091FC04F091FD04A089B18982E08C93DA
:100F4000A485B5851C92A685B7858FE38C93108EFA
:100F5000A489B58986E08C93A289B3898C9180613C
:100F60008C93A289B3898C9188608C93A289B38970
:100F70008C9180688C930288F389E02D80818F7D2D
:100F800080831092FE04109200051092FF041092CC
:100F900007051092060510920505109204058FEFC3
:100FA0009FEF909309058093080590930B0580931C
:100FB0000A051092920510920F0510920E051092DC
:100FC0000D05109210051092110580910C0581708D
:100FD0008260816080930C0562E082E00E946F0471
:100FE00062E083E00E946F0462E084E00E946F048C
:100FF00062E085E00E946F0462E086E00E946F0478
:1010000061E089E00E946F0461E08AE00E946F0461
:1010100061E08BE00E946F048FE780931C04809353
:1010200021048093260480932B0480918100807E8C
:101030008160809381008091B100807F8160809386
:10104000B100809180008C70816A809380008091D3
:10105000B0008C70816A8093B000809170008160D4
:101060008093700080916F00816080936F00D1E069
:10107000B0E8CB2ED12CC2E04C2E512C13E0A12E87
:10108000B12C88248394912C80E0E82E82E0F82E05
:101090001091FE04113108F0B8C18091FC049091C8
:1010A000FD04DC01ED91FC910084F185E02D0995B2
:1010B000892B09F4AAC18091FC049091FD04DC0104
:1010C000ED91FC910284F385E02D09953C018B7F25
:1010D000893F09F49AC12091060530910705211531
:1010E000310509F0AAC060920105C091FF048C2F60
:1010F0000E9429050E943B05882351F067FC08C027
:10110000C093010560920205909207058092060542
:10111000C09101058C2F0E942905813F910509F49A
:101120005EC074F5803B910509F45EC06CF48039B3
:10113000910509F459C0803A910509F455C08038E9
:10114000910509F0D6C050C0803D910509F447C013
:101150002CF4803C910509F442C0CBC0803E91053F
:1011600009F442C0803F910509F0C3C0D092050543
:10117000C09204051092FF0420EF2093120538C09E
:10118000883F9105B9F044F4833F910541F164F142
:10119000863F910579F0ADC08A3F91050CF4A9C056
:1011A0008D3F91053CF09C012E5F310922303105C5
:1011B00008F09FC090930F0580930E0510920D05C7
:1011C0001092100510921105D09392051092070508
:1011D000109206051092050510920405EEC050927B
:1011E00005054092040504C0B0920505A0920405CF
:1011F00020910605309107054091040550910505A1
:10120000415051092417350708F4D0C090930F05B9
:1012100080930E05CF70CF5FC0930D0580910205BE
:101220008093100510921105109207051092060583
:10123000109205051092040521C067FE44C0C30149
:1012400099278D3F910554F48A3F91056CF4873FAF
:101250009105B9F0883F9105B1F506C0AC014E5F2C
:1012600051094230510578F590930F0580930E0592
:10127000109210051092110510920D05D093920551
:101280009CC080911205803FA1F5C9010196F9012A
:10129000E852FB4F47EF42AFE0EFF0E0F0930F056D
:1012A000E0930E05809310059093110510920D05A3
:1012B000D09392051092070510920605109205052D
:1012C0001092040570C080910105F901E852FB4FAE
:1012D000803FD1F462AE6090040570900505C301B3
:1012E00001972817390708F461C0C0910105C03F74
:1012F00069F41092070510920605109205051092E8
:1013000004051092FF0481C061A6E5CF8C2F0E94D6
:1013100029051C0190930F0580930E050E943B0543
:10132000882331F08C2F8F708F5F80930D0502C062
:1013300010920D058091020580931005F3E06F1661
:10134000710419F48091030501C080E080931105B8
:1013500010920705109206051092050510920405DB
:10136000D093920520EB22163104D1F06CF440E9C1
:1013700024163104A9F080EA2816310489F0A0E887
:101380002A16310481F40CC0B0ED2B16310441F063
:10139000E0EE2E16310421F0F0EC2F16310419F492
:1013A000C093FF040AC01092FF0407C02F5F3F4F95
:1013B000309307052093060528C080910E05909173
:1013C0000F058039910529F480911105882309F4CE
:1013D00044C280910E0590910F059C01205831095F
:1013E0002136310508F03EC220910D05211709F480
:1013F00039C2112309F436C2C0E040910C05642FB4
:10140000617040FD95C0C1116CC182E00E9426044C
:10141000892B89F482EE94E0A0E0B2E0FC012591F2
:1014200034912D930196E3E0A030BE07B9F7F09216
:101430000101E092000183E00E942604892B89F4D7
:1014400082EE93E0A0E0B2E0FC01259134912D936F
:101450000196F3E0A030BF07B9F7F0920101E092E6
:10146000000184E00E942604892B99F482EE92E028
:10147000A0E0B2E0FC0125913491205831092D9370
:10148000019623E0A030B207A9F7F0920101E092A3
:10149000000185E00E942604892B99F482EE91E0F8
:1014A000A0E0B2E0FC0125913491205831092D9340
:1014B000019633E0A030B307A9F7F0920101E09262
:1014C000000186E00E942604892B79F582EE94E0E3
:1014D00020E032E0D901FC01459154914D930196F1
:1014E00043E0A030B407B9F782EE90E0A0E0B2E0AC
:1014F000FC01459154914D930196E2E0AF37BE0750
:10150000B9F780E090E0FC01EE59FE4F459154910F
:1015100040585109D9014D939D010196803891059C
:1015200091F7F0920101E09200010E941C04B0CDFD
:10153000842F8E7F09F467CF80910E0590910F055F
:101540009C01205831092136310508F520910D05FF
:10155000211719F061E0111160E0469550E042302A
:10156000510541F04330510549F04130510509F032
:101570004ACF06C0662309F446CF02C0611143CFAB
:1015800040911105609110050E94C6043CCFFC01FA
:10159000E05FF109E031F10508F035CFEC5CFF4F79
:1015A0000C94830EBC018CEF94E00E94AB042BCF13
:1015B0000091110510E0102F002780911005082BD5
:1015C0000138110510F000E810E0612C712C601654
:1015D000710609F418CF8091FC049091FD04DC01A0
:1015E000ED91FC91D301A852BB4F0190F081E02D09
:1015F000DA966C910995BFEF6B1A7B0AE8CF1091D0
:1016000010058091FC049091FD04DC01ED91FC91AA
:101610000190F081E02D63EF09951F77612F70E055
:101620008091FC049091FD040E944F05ECCE009146
:101630001105B0E80B9F8001112480911005082B43
:101640008091FC049091FD04DC01ED91FC910190EE
:10165000F081E02D62EF09958091FC049091FD04EA
:10166000DC01ED91FC91B8016F7777270190F08153
:10167000E02D09958091FC049091FD04DC01ED9131
:10168000FC91B801660F672F661F770B71956F7716
:1016900077270190F081E02D22C08091100587709E
:1016A000B0E18B9FC0011124109111051F70182B00
:1016B0008091FC049091FD04DC01ED91FC9101907E
:1016C000F081E02D61EF09958091FC049091FD047B
:1016D000DC01ED91FC910190F081E02D612F0995E5
:1016E00092CE80910E0590910F058039910509F0F9
:1016F0007FC080912E04882309F4A8C180912F0413
:10170000882309F451C0C0913004CC2349F1809161
:101710003104811123C010911005E12FF0E0EE0F8C
:10172000FF1FE851FD4F60817181072E000C880B6F
:10173000990B0E948A0D2AE13DEA45E050E40E949F
:10174000EE0D0E94590D70932A04609329048FE7CF
:1017500080932B04D093310410931904C11155CEFA
:10176000C0911005EC2FF0E0EE0FFF1FE851FD4F88
:1017700060817181072E000C880B990B0E948A0DE5
:101780002AE13DEA45E050E40E94EE0D0E94590D29
:1017900070932504609324048FE780932604D093EC
:1017A0003004C093180431CEC0911005EC2FF0E046
:1017B000EE0FFF1FE851FD4F60817181072E000C75
:1017C000880B990B0E948A0D2AE13DEA45E050E41E
:1017D0000E94EE0D0E94590D7093200460931F0427
:1017E0008FE780932104D0932F04C09317040DCE6C
:1017F0008038910509F009CE80912E04882339F0B4
:101800009091160480911005981709F443C18091B6
:101810002F04882339F090911704809110059817B0
:1018200009F43DC180913004882339F09091180467
:1018300080911005981709F437C1809131048823ED
:1018400009F4E3CD90911904809110059813DDCD32
:1018500010922B0410923104D8CDD0920F05C09273
:101860000E05B7CD813F9105B1F5E091E804F09107
:10187000E9040CC08B3F91050CF0C7C0833F910574
:1018800009F0A4C0E091EC04F091ED04309709F167
:101890008091100509951DC0813D91050CF454C03F
:1018A000803E910509F060C0E091E404F091E50408
:1018B000309779F0609111056F7720E8629FB00151
:1018C0001124809110058F77682B705280910D053F
:1018D0000995C1E092CD823F91050CF061C0803B3B
:1018E0009105B1F4E091DE04F091DF0407C0803887
:1018F000910579F7E091D804F091D904309749F334
:10190000409111056091100580910D050995E1CF79
:10191000813B910584F48039910529F4E091DA0442
:10192000F091DB04EBCF803A910509F7E091DC04FC
:10193000F091DD04E3CF803D910509F0ADCFE0915A
:10194000E204F091E30407C0803C910511F6E091B8
:10195000E004F091E104309709F4BBCF60911005E9
:1019600080910D050995B5CF803F910509F0B1CF64
:10197000E091E604F091E704309709F4AACF609172
:10198000110570E0762F662780911005682B61386D
:10199000710510F060E870E082E195E0099599CF5B
:1019A0008A3F910509F066CFE091F204F091F304CB
:1019B00008C0883F910509F08CCFE091F004F091C8
:1019C000F104309709F485CF099583CF833F9105C2
:1019D000A4F4E091EA04F091EB04309709F479CF94
:1019E000809111058F7730E8839FC00111242091E9
:1019F00010052F77822B09956CCF863F9105C9F68C
:101A0000E091EE04F091EF04DCCF8C3F910529F4D6
:101A1000E091F604F091F704D4CF8C3F91052CF4BB
:101A2000E091F404F091F504CCCF8E3F910529F4B8
:101A3000E091F804F091F904C4CF8F3F910509F0CB
:101A400048CFE091FA04F091FB04BBCFC0911005A0
:101A5000EC2FF0E0EE0FFF1FE851FD4F6081718128
:101A6000072E000C880B990B0E948A0D2AE13DEA93
:101A700045E050E40E94EE0D0E94590D70931B0446
:101A800060931A048FE780931C04C0931604D093CC
:101A90002E04BBCC10921C0410922E04B8CE1092CF
:101AA000210410922F04BECE10922604109230040E
:101AB000C4CE0E94CD0D88F09F5798F0B92F99277A
:101AC000B751B0F0E1F0660F771F881F991F1AF029
:101AD000BA95C9F714C0B13091F00E94E70DB1E09A
:101AE00008950C94E70D672F782F8827B85F39F099
:101AF000B93FCCF3869577956795B395D9F73EF4C2
:101B000090958095709561957F4F8F4F9F4F089569
:101B1000E89409C097FB3EF4909580957095619587
:101B20007F4F8F4F9F4F9923A9F0F92F96E9BB273D
:101B30009395F695879577956795B795F111F8CFB9
:101B4000FAF4BB0F11F460FF1BC06F5F7F4F8F4F24
:101B50009F4F16C0882311F096E911C0772321F01A
:101B60009EE8872F762F05C0662371F096E8862FB2
:101B700070E060E02AF09A95660F771F881FDAF709
:101B8000880F9695879597F9089557FD9058440FBB
:101B9000551F59F05F3F71F04795880F97FB991FCC
:101BA00061F09F3F79F08795089512161306140689
:101BB000551FF2CF4695F1DF08C016161706180616
:101BC000991FF1CF86957105610508940895E894F1
:101BD000BB2766277727CB0197F908950E94010E4E
:101BE0000C94720E0E94640E38F00E946B0E20F06E
:101BF000952311F00C945B0E0C94610E11240C943F
:101C0000E80D0E94C50D70F3959FC1F3950F50E04C
:101C1000551F629FF001729FBB27F00DB11D639F9E
:101C2000AA27F00DB11DAA1F649F6627B00DA11D44
:101C3000661F829F2227B00DA11D621F739FB00DEA
:101C4000A11D621F839FA00D611D221F749F33275A
:101C5000A00D611D231F849F600D211D822F762FF3
:101C60006A2F11249F5750409AF0F1F088234AF0D0
:101C7000EE0FFF1FBB1F661F771F881F915050403C
:101C8000A9F79E3F510580F00C945B0E0C94E80D73
:101C90005F3FE4F3983ED4F3869577956795B795C3
:101CA000F795E7959F5FC1F7FE2B880F911D9695DD
:101CB000879597F9089597F99F6780E870E060E04D
:101CC00008959FEF80EC089500240A9416161706D5
:101CD00018060906089500240A941216130614061D
:101CE00005060895092E0394000C11F4882352F080
:101CF000BB0F40F4BF2B11F460FF04C06F5F7F4F38
:101D00008F4F9F4F0895EE0FFF1F0590F491E02D28
:101D1000099481E090E0F8940C948E0EF894FFCF33
:101D200000020000000000000000000000000000B1
:101D300000000000000000000000000000000000A3
:101D40000000000000000000000000000000000093
:101D50000000000000000000000000000000000083
:101D60000000000000000000000000000000000073
:101D70000000000000000000000000000000000063
:101D80000000000000000000000000000000000053
:101D90000000000000000000000000000000000043
:101DA0000000000000000000000000000000000033
:101DB0000000000000000000000000000000000023
:101DC0000000000000000000000000000000000013
:101DD0000000000000000000000000000000000003
:101DE00000000000000000000000000000000000F3
:101DF00000000000000000000000000000000000E3
:101E000000000000000000000000000000000000D2
:101E100000000000000000000000000000000000C2
:101E2000000306090C0F1215181B1E2124272A2D4A
:101E3000303336393B3E414346494B4E505255575D
:101E4000595B5E6062646667696B6C6E7071727418
:101E500075767778797A7B7B7C7D7D7E7E7E7E7ED3
:101E60007F7E7E7E7E7E7D7D7C7B7B7A79787776B9
:101E700075747271706E6C6B6967666462605E5BCC
:101E800059575552504E4B494643413E3B393633E4
:101E9000302D2A2724211E1B1815120F0C090603AA
:101EA00000FDFAF7F4F1EEEBE8E5E2DFDCD9D6D39A
:101EB000D0CDCAC7C5C2BFBDBAB7B5B2B0AEABA967
:101EC000A7A5A2A09E9C9A9997959492908F8E8C8C
:101ED0008B8A8988878685858483838282828282B1
:101EE0008182828282828383848585868788898AAB
:101EF0008B8C8E8F9092949597999A9C9EA0A2A578
:101F0000A7A9ABAEB0B2B5B7BABDBFC2C5C7CACD3F
:101F1000D0D3D6D9DCDFE2E5E8EBEEF1F4F7FAFD59
:101F20001000110012001300150016001700180011
:101F30001A001C001D001F0021002300250027009F
:101F400029002C002E003100340037003A003E00FA
:101F50004100450049004E00520057005C006200FD
:101F600068006E0075007B0083008B0093009C006E
:101F7000A500AF00B900C400D000DC00E900F70004
:101F800006011501260137014A015D017201880130
:101F90009F01B801D201EE010B022A024B026E0230
:101FA0009302BA02E40210033F037003A403DC03AC
:101FB000170455049704DD0427057505C805200698
:101FC0007D06E0064907B8072D08A9082D09B909BB
:101FD0004D0AEA0A900B400CFA0CC00D910E6F0FDF
:101FE0005A1053115B1272139A14D41520178018CB
:101FF000F519801B231DDE1EB420A622B524E4267D
:102000003429A72B402E0031EA330037453ABC3D36
:1020100068414C456B49C84D68524F57805C00621F
:1020200000000000B3031C034B03FA037C035A03B4
:022030006E033D
:00000001FF
